{
  "contractName": "Cert",
  "abi": [
    {
      "constant": true,
      "inputs": [
        {
          "name": "",
          "type": "uint256"
        }
      ],
      "name": "unis",
      "outputs": [
        {
          "name": "uid",
          "type": "uint256"
        },
        {
          "name": "year",
          "type": "string"
        },
        {
          "name": "certs",
          "type": "string"
        }
      ],
      "payable": false,
      "stateMutability": "view",
      "type": "function",
      "signature": "0xcfc5b9a4"
    },
    {
      "constant": true,
      "inputs": [],
      "name": "currentId",
      "outputs": [
        {
          "name": "",
          "type": "uint256"
        }
      ],
      "payable": false,
      "stateMutability": "view",
      "type": "function",
      "signature": "0xe00dd161"
    },
    {
      "constant": false,
      "inputs": [
        {
          "name": "_uid",
          "type": "uint256"
        },
        {
          "name": "_year",
          "type": "string"
        },
        {
          "name": "_content",
          "type": "string"
        }
      ],
      "name": "addCert",
      "outputs": [],
      "payable": false,
      "stateMutability": "nonpayable",
      "type": "function",
      "signature": "0x4a0d3d44"
    }
  ],
  "bytecode": "0x60806040526000805534801561001457600080fd5b50610549806100246000396000f3fe6080604052600436106100565763ffffffff7c01000000000000000000000000000000000000000000000000000000006000350416634a0d3d44811461005b578063cfc5b9a41461019e578063e00dd161146102ad575b600080fd5b34801561006757600080fd5b5061019c6004803603606081101561007e57600080fd5b813591908101906040810160208201356401000000008111156100a057600080fd5b8201836020820111156100b257600080fd5b803590602001918460018302840111640100000000831117156100d457600080fd5b91908080601f016020809104026020016040519081016040528093929190818152602001838380828437600092019190915250929594936020810193503591505064010000000081111561012757600080fd5b82018360208201111561013957600080fd5b8035906020019184600183028401116401000000008311171561015b57600080fd5b91908080601f0160208091040260200160405190810160405280939291908181526020018383808284376000920191909152509295506102d4945050505050565b005b3480156101aa57600080fd5b506101c8600480360360208110156101c157600080fd5b5035610345565b604051808481526020018060200180602001838103835285818151815260200191508051906020019080838360005b8381101561020f5781810151838201526020016101f7565b50505050905090810190601f16801561023c5780820380516001836020036101000a031916815260200191505b50838103825284518152845160209182019186019080838360005b8381101561026f578181015183820152602001610257565b50505050905090810190601f16801561029c5780820380516001836020036101000a031916815260200191505b509550505050505060405180910390f35b3480156102b957600080fd5b506102c261047c565b60408051918252519081900360200190f35b600080546001908101825560408051606081018252868152602080820187815282840187905288865260028252929094208151815591518051919492936103219390850192910190610482565b506040820151805161033d916002840191602090910190610482565b505050505050565b60026020818152600092835260409283902080546001808301805487519281161561010002600019011695909504601f81018590048502820185019096528581529094919390929091908301828280156103e05780601f106103b5576101008083540402835291602001916103e0565b820191906000526020600020905b8154815290600101906020018083116103c357829003601f168201915b50505060028085018054604080516020601f60001961010060018716150201909416959095049283018590048502810185019091528181529596959450909250908301828280156104725780601f1061044757610100808354040283529160200191610472565b820191906000526020600020905b81548152906001019060200180831161045557829003601f168201915b5050505050905083565b60005481565b828054600181600116156101000203166002900490600052602060002090601f016020900481019282601f106104c357805160ff19168380011785556104f0565b828001600101855582156104f0579182015b828111156104f05782518255916020019190600101906104d5565b506104fc929150610500565b5090565b61051a91905b808211156104fc5760008155600101610506565b9056fea165627a7a723058206444dad63e8069bf7c309a705ebb1332186a3d37f77a1c47a8aade8ac1f776b70029",
  "source": "pragma solidity ^0.5.0;\r\n\r\ncontract Cert {\r\n    uint public currentId = 0 ;\r\n    string[] certfill;\r\n\r\n    struct uni {\r\n    uint uid;\r\n    string year;\r\n    string certs;\r\n  }\r\n\r\n    mapping(uint => uni) public unis;\r\n\r\n    function addCert(uint _uid, string memory _year, string memory _content) public\r\n    {\r\n        currentId ++;\r\n        unis[_uid] = uni(_uid,_year, _content);\r\n    }\r\n  \r\n    }\r\n   ",
  "sourcePath": "C:/Users/Dell/CertAuth/testproject/contracts/Cert.sol",
  "compiler": {
    "name": "solc",
    "version": "0.5.0+commit.1d4f565a.Emscripten.clang"
  },
  "schemaVersion": "3.0.1",
  "updatedAt": "2020-07-09T02:11:15.967Z",
  "devdoc": {
    "methods": {}
  },
  "userdoc": {
    "methods": {}
  }
}